:020000040800F2
:1000000080070020A9010008291C0008B51B000872
:10001000B5010008B7010008B901000800000000A0
:10002000000000000000000000000000EB1D0008C0
:10003000590D000800000000531C0008311E000884
:10004000C3010008C3010008C3010008C301000880
:10005000C3010008C3010008610D0008C3010008C6
:10006000C3010008C3010008C3010008C301000860
:10007000C3010008C3010008C3010008C301000850
:10008000C3010008C3010008C3010008000000000C
:10009000000000000000000000000000C301000894
:1000A000C3010008C3010008C3010008C301000820
:1000B000C3010008C3010008C3010008C301000810
:1000C000C3010008C3010008C3010008C301000800
:1000D000C3010008C3010008C301000800000000BC
:1000E000690D0008C3010008C301000800000000FA
:1000F000000000000000000000000000C301000834
:1001000000000000C3010008C3010008C30100088B
:1001100000000000000000000000000000000000DF
:10012000C3010008C3010008C3010008C30100089F
:10013000C3010008000000000000000000000000F3
:10014000000000000000000000000000C3010008E3
:10015000C3010008C3010008C3010008C30100086F
:10016000C3010008C30100080000000000000000F7
:10017000000000000000000000000000000000007F
:1001800000000000C30100080000000000000000A3
:10019000C3010008DFF80CD000F0A0F800480047C9
:1001A0002D290008800700200648804706480047A0
:1001B000FEE7FEE7FEE7FEE7FEE7FEE7FEE7FEE717
:1001C000FEE7FEE7811E0008950100082DE9F05FBB
:1001D0000546002092469B468846064681464024B6
:1001E0001BE0284641464746224600F066F8534643
:1001F0005A46C01A914110D311461846224600F0C3
:100200004DF82D1A67EB01084F46224601200021C8
:1002100000F044F817EB00094E41201EA4F1010440
:10022000DFDC484631462A464346BDE8F09F0000E1
:100230000649074A0868504343F2390210440860EF
:1002400040087047014908607047000058000020CE
:100250006D4EC64110B540EA01040346A40703D021
:1002600009E010C9121F10C3042AFAD203E011F8E2
:10027000014B03F8014B521EF9D210BD10B50346D5
:10028000C9B201E003F8011B521EFBD210BD421C93
:1002900010F8011B0029FBD1801A7047202A04DBCB
:1002A000203A00FA02F1002070479140C2F1200389
:1002B00020FA03F3194390407047202A04DB203AC8
:1002C00021FA02F00021704721FA02F3D040C2F176
:1002D000200291400843194670470000064C074D24
:1002E00006E0E06840F0010394E807009847103406
:1002F000AC42F6D3FFF752FFB02A0008D02A00081C
:100300000EB501788DF8041001880623090A8DF8CE
:10031000051001798DF8061081880022090A8DF8F0
:100320000710017A8DF808100089000A8DF809007D
:1003300001A8009004480189808802F093F8002801
:1003400000D047200EBD00000C0000202DE9F04F2A
:100350008BB002248DF81C404FF000098DF81D90E1
:10036000B4208DF81E009A208DF81F004FF0E10A8E
:100370008DF820A011208DF821003A208DF8220060
:10038000CF208DF8230080208DF824006E208DF87A
:10039000250036201B258DF826008DF81850C5261F
:1003A0008DF81960D52749488DF81A704FF0A508C7
:1003B00000908DF81B808DF827400723012206A9A5
:1003C000022001F0CBFF00287CD18DF818508DF869
:1003D0001C408DF819608DF81A70A5208DF81D90BD
:1003E0008DF81B00FC20A3468DF81E004C468F2084
:1003F0008DF820A08DF81F004FF011098DF8219085
:100400004A208DF82200A0208DF8240078208DF855
:1004100025003E208DF82600E2208DF827002B498C
:100420001020891CD046CDE904414FF0CF0A8DF849
:1004300023A0CDE90240CDE9000424480123001F98
:1004400006AA0221808801F0B9FED8BB8DF81850A9
:100450008DF819608DF81A70A5208DF81B008DF8A5
:100460001CB08DF81D4036208DF81E00AC208DF894
:100470001F008DF820808DF821904B208DF82200F0
:1004800080208DF824008DF825500A208DF8260054
:1004900034208DF827000D498DF823A01020042268
:1004A000091DCDE90220CDE904411220CDE9000467
:1004B00006480623001F06AA0221808801F07EFE5E
:1004C000002800D047200BB0BDE8F08F10000020BE
:1004D0002DE9F04F91B0E2218DF82C1011218DF80B
:1004E0002D1077218DF82E10E4214FF0020A8DF89F
:1004F0002F108DF828A04FF0000B40218DF829B067
:10050000D0208DF830108DF82A001A2182208DF825
:1005100031108DF82B008DF832001B2642208DF80B
:100520002460C5278DF833008DF82570D524A448A4
:100530008DF82640A52500908DF827500A2301222A
:1005400009A9022001F00AFF00287CD18DF824605F
:100550008DF828A08DF825708DF826408DF829B0EB
:10056000E3208DF82A00A9208DF827508DF82B0064
:100570005D464FF0E20B8DF82CB011208DF82D0068
:1005800077208DF82E0020208DF8300055208DF832
:10059000310054462E208DF83200894AA3204FF0B6
:1005A000E40A8DF83300921C00948DF82FA01020DF
:1005B0000592CDE903050421CDE9015180480223CC
:1005C0000A3809AA1946408901F0F8FD0028BCD173
:1005D0000E208DF83400FF208DF8350042F22F7088
:1005E000ADF8360000208DF83800ADF8390042F63D
:1005F0000411ADF83C101022CDE9050210A9CDE997
:1006000007010DAB0721CDE90113012200916C4DCB
:10061000CDE903020A3D0FABA989688901F02BFEE1
:10062000002892D11B208DF82400C5208DF82500CC
:10063000D5208DF82600A5208DF8270002208DF802
:100640002800002400E097E08DF829400B218DF868
:100650002A1084218DF82B10E2218DF82C10112105
:100660008DF82D108B218DF82E10E4218DF82F1090
:1006700080218DF83010C4218DF8311020218DF8A3
:100680003210CD218DF8331005F10E01CDE9044172
:100690001026042703968DE89100032309AA02215E
:1006A000688901F08BFD002866D10F208DF8340099
:1006B000FB208DF835004FF41E50ADF836008DF854
:1006C0003840ADF8394042F60418ADF83C80CDE929
:1006D000054610A8CDE90740B2460DF1340B0726B8
:1006E000CDE9016B4FF001090096CDE903490FAB4D
:1006F0004A46E989688901F0BEFDE8BB1B208DF8F8
:100700002400C5208DF82500D5218DF82610A521BF
:100710008DF8271002218DF828108DF829407322BA
:100720008DF82A20A0228DF82B20E2228DF82C2093
:1007300011228DF82D208C228DF82E20E4228DF8A8
:100740002F2060228DF830200B228DF8312005F10A
:100750001002CDE904428DF832008DF833908DE817
:100760009204022309AA1946688901F027FD18B9E5
:1007700006208DF8340000E01EE0FF208DF83500E3
:100780004FF41C50ADF836008DF83840ADF83940C4
:10079000ADF83C80CDE9054A10A8CDE90740CDE988
:1007A000016B0096CDE903490FAB0122298A6889C4
:1007B00001F061FD002800D0472011B0BDE8F08FA6
:1007C000160000202DE9F04F8BB04FF002098DF894
:1007D0001C9000248DF81D40B4208DF81E009A2036
:1007E0008DF81F00E1208DF8200011208DF82100E8
:1007F0004FF03A0A8DF822A0CF208DF823004FF059
:10080000800B8DF824B06E208DF8250036208DF8F1
:1008100026001B250B208DF81850C5268DF82700C3
:100820008DF81960D52727488DF81A704FF0A50864
:1008300000908DF81B800723012206A9022001F0F9
:100840008DFDD8BB8DF81C908DF81D40B4208DF81F
:100850001E009A208DF81F00E1208DF82000112045
:100860008DF821008DF822A0CF208DF823008DF87F
:1008700024B06E208DF82500012136208DF8260049
:10088000104A0C208DF818508DF82700921C8DF816
:100890001960CDE904128DF81A708DF81B80CDE92E
:1008A00000041023CDE9021306480423183806AAD1
:1008B0000221008B01F082FC002800D047200BB001
:1008C000BDE8F08F240000202DE9F04F8BB04FF0F1
:1008D00002088DF81C804FF000098DF81D904FF034
:1008E000B40B8DF81EB09A208DF81F00E1208DF812
:1008F000200011208DF821003A208DF82200CF2011
:100900008DF8230080208DF824006E208DF82500BE
:1009100036208DF826001B2708208DF81870C52575
:100920008DF827008DF81950D5264A488DF81A60A1
:10093000A52400908DF81B400723012206A9022060
:1009400001F00CFD00287CD102208DF81C008DF8F0
:100950001D90B4208DF81E009A208DF81F008DF890
:100960001870E1208DF819508DF820008DF81A606C
:100970001120A2468DF81B408DF821004C463A20EC
:100980008DF822004FF08009CF208DF824904FF091
:100990006E0B8DF823008DF825B04FF036088DF8DA
:1009A000268009208DF827002A491020891CCDE9CE
:1009B0000240CDE904410220CDE90004014625486A
:1009C0000423123806AA408A01F0F8FBC8BB0220B3
:1009D0008DF81C008DF81D40B4208DF81E009A2063
:1009E0008DF81F00E1208DF8200011208DF82100E6
:1009F0003A208DF82200CF208DF824908DF81870C1
:100A00008DF823008DF825B012498DF819508DF816
:100A100026800A208DF81A608DF82700091D8DF8B0
:100A20001BA00122102002940591CDE9030212209F
:100A3000CDE90004074804230221123806AA408A9F
:100A400000E003E001F0BAFB002800D047200BB023
:100A5000BDE8F08F1E0000200449498B491C8842E4
:100A600002D1002000F04CB8704700000C000020BC
:100A70000C480B494FF4007201604FF482714160E1
:100A800000218160C1600161C0E905120162072295
:100A9000C26241620822C261816200F081BD000031
:100AA000003001406800002070B50446114886B04F
:100AB0000021026842F00102026000680E4E00F060
:100AC0000100059036F8140000900120CDE90101E5
:100AD0000A4D0220039055F82400694600F086F97B
:100AE00036F8141055F82400002200F04CFA06B035
:100AF00070BD0000303802409A2A00083000002003
:100B00000349044A31F8101052F8200000F037BAB7
:100B10009A2A0008300000200349044A31F81010D6
:100B200052F8200000F026BA9C2A00083400002069
:100B300030B50446194887B00022036843F0040327
:100B400003600068174B00F0040005901448C1B121
:100B5000012914D130F8140000901348CDE90102A6
:100B600053F82400694600F041F90D4D00222D1F75
:100B70000F21285700F060FA285700F051FA07B00B
:100B800030BD30F81400CDE900020220029003903D
:100B900053F82400694600F029F9F0E730380240A4
:100BA0009C2A0008340000200000211010B501210B
:100BB000034800F0DFF9012800D0002010BD00003C
:100BC0000000024070B50A4D4FF4807400222146A7
:100BD000284600F0D8F9052000F0ECF80122214663
:100BE000284600F0D0F9BDE87040052000F0E2B8DA
:100BF000000002402DE9F04387B00E468046FF20FA
:100C000020A18DF81800D1E90001CDE90401DFF839
:100C10007C90002422460221484600F0B4F90F27B8
:100C2000052301AA04A91A48009700F0A7FD9DF822
:100C30000400022815D1BDF8075095B1B5420ED970
:100C400035460CE0012303AA06A91148009700F0DD
:100C500095FD9DF80C1008F80410641CE4B2AC4239
:100C6000F0D301220221484600F08DF900200090C7
:100C700000BF401C00900228FADB07B02046BDE808
:100C8000F08300000B0000000000000000000240A4
:100C9000680000202DE9F047814626A08A46D0E969
:100CA0000010C6B01F46CDE9431024A01546D0E978
:100CB0000010CDE941100024062000F0A6F9DFF86D
:100CC000848000220221404600F05DF90F260523B2
:100CD00041AA43A91C48009600F050FD9DF804016C
:100CE00002280CD0641E01220221404600F04BF97C
:100CF000062000F095F946B02046BDE8F0879DF843
:100D00000501E919884211D335B12B4601AA49469C
:100D10000D48009600F032FD002FE4D03B4601AABA
:100D200051460948009600F029FDDCE76FF0010408
:100D3000D9E700000A00000000000000AA0000003F
:100D4000000000000000024068000020014901206E
:100D500008607047143C01407047062000F055B908
:100D6000012000F037B8000010B54FF4005000F03B
:100D700031F802490120087010BD00000400002075
:100D8000062000F04DB9000004480122C2614180F4
:100D90000520401E0028FCDC704700000C000020ED
:100DA00003480021C16101220270417070470000B8
:100DB0000C00002031B500F0EBF8009C0546601CEB
:100DC00000D0641C00F0E4F8401BA042FAD338BD08
:100DD00000F06CBE044910B50A68024202D00860F7
:100DE000FFF7F6FF10BD0000143C01402DE9F84F5D
:100DF000DFF860B100224FF001084FF0030A4FF016
:100E00000F090BF1040E00BF0B6808FA02F423402F
:100E1000A3426ED14D68022D01D0122D0ED1D508FE
:100E200000EB850CDCF820505607F70E09FA07F6A0
:100E3000B5430E69BE402E43CCF8206006685500CD
:100E40000F790AFA05FC07F0030726EA0C06AF4003
:100E5000374307604E68012E05D0022E03D0112EB5
:100E600001D0122E0ED18668CF6826EA0C06AF405C
:100E7000374387604668A6430C79C4F30014944056
:100E800034434460C6688C6826EA0C06AC403443A0
:100E9000C4604C68E40056D52F4C256845F4804565
:100EA0002560246822F0030504F4804400942B4C50
:100EB0002E19D6F8084895072F0F09FA07F5AC4305
:100EC000274DA84201D1002515E0264DA84201D1A9
:100ED000012510E0244DA84201D102250BE0234D4D
:100EE000A84201D1032506E0214DA84202D10425E4
:100EF00001E028E00725BD402543C6F80858DBF887
:100F000000405D464E689C43F60300D51C432C60B0
:100F1000DEF8004075464E689C43B60300D51C437E
:100F20002C600C4D08352C684E689C43F60200D5A9
:100F30001C432C60074D0C352C684E689C43B60250
:100F400000D51C432C60521C102AFFF45DAFBDE895
:100F5000F88F0000003C014044380240003001405E
:100F6000000002400004024000080240000C024061
:100F7000001002400069084000D00120704742691B
:100F80004A40426170470AB1816170470904FBE73A
:100F900001480068704700004000002002480168D6
:100FA000491C016070470000400000200B4810B54C
:100FB000016841F400710160016841F480610160E1
:100FC000016841F480710160032000F055F80F20A2
:100FD00000F006F800F018F8002010BD003C0240B8
:100FE00010B5044607484FF47A710068B0FBF1F081
:100FF00000F0FBFC00222146501E00F01DF80020EE
:1010000010BD00003C000020704700F01F020121CD
:1010100091404009800000F1E020C0F88011704745
:1010200000F01F02012191404009800000F1E02002
:10103000C0F8001170470000F0B40E4B1B680C465E
:10104000C3F30223C3F10705042D00D90425191D9C
:10105000072901D2002300E0DB1E012606FA05F174
:10106000491E214099409E40761E16403143F0BCF7
:1010700000F0DBBD0CED00E0064900F00702086857
:101080004FF6FF03184040EA0220034A104308606D
:10109000704700000CED00E00000FA052DE9F04774
:1010A000DFF8649105460F46D9F8000000F00F0103
:1010B000F8B28046B94208D2014689F80010D9F842
:1010C000000000F00F00B84274D128784F4C800720
:1010D00005D52068A96820F0F00008432060287832
:1010E000C00759D049496868083901281AD0022830
:1010F0001BD0032819D00968890700295ADA21680A
:1011000021F0030101432160FFF742FF69680646B1
:1011100041F28830012911D002291DD003298246CD
:1011200027D035E009688903E7E709688901E4E722
:10113000FFF72EFF811B514501D926E0824620682A
:10114000C0F381000128F3D126E000BFFFF720FFA4
:10115000811B514501D918E082462068C0F3810007
:101160000228F3D118E000BFFFF712FF811B5145A1
:101170000BD82068C0F381000328F5D10CE000BF34
:10118000FFF706FF811B514502D90320BDE8F08718
:10119000206810F00C0FF3D1D9F80010484601F088
:1011A0000F01B94208D980F80080006800F00F00F4
:1011B000B84201D00120E9E72878400705D520682A
:1011C000E96820F4E050084320602878000706D53D
:1011D0002068296920F4604040EAC100206000F0E6
:1011E0001BF82168F02292FAA2F201F0F001B2FAA3
:1011F00082F2D140064A515CC840064908600F207F
:10120000FFF7EEFE0020C1E7003C02400838024034
:101210009E2A00083C00002030B51948006810F0F4
:101220000C01184812D0184C04290ED008290DD1F1
:101230001349091F0A6802F03F030A68550247F67E
:10124000C07204D5B4FBF3F003E0204630BDB0FB20
:10125000F3F00B680968134092FAA2F2B2FA82F234
:10126000D34058434FF4403292FAA2F201F4403195
:10127000B2FA82F2D140491C4900B0FBF1F030BD16
:10128000083802400024F40040787D012DE9F84F31
:101290000546DFF8FC920078A9F1040BC007ABF11A
:1012A000040449D0D9F800104846C1F3810101294E
:1012B00008D00068C0F3810002280AD1DBF80000E2
:1012C000400206D52068800336D5686800286ED0B5
:1012D00032E06868B0F5803F10D0B0F5A02F2068EC
:1012E00010D020F480302060206820F4802020601E
:1012F0006868A0B1FFF74CFE06460CE0206840F499
:101300008030F4E740F480202060F7E7FFF740FEEC
:10131000801B642871D820688003F7D50CE0FFF7A4
:1013200037FE064605E000BFFFF732FE801B64284B
:10133000F0D820688003F7D42878964F80074FF0C4
:10134000010A4FF0000841D5D9F80010484611F0C5
:101350000C0F08D00068C0F3810002280AD1DBF826
:101360000000400206D42068800713D5E8680128F1
:101370001DD10FE0E868D8B1C7F800A0FFF708FE5C
:10138000064604E0FFF704FE801B0228C2D820684E
:101390008007F7D52068F82292FAA2F22969B2FAFA
:1013A00082F220F0F8009140084320600EE0ECE06B
:1013B000C7F80080FFF7ECFD064604E0FFF7E8FD04
:1013C000801B022819D820688007F7D428780007E6
:1013D00024D57148696989B1C0F800A0FFF7D8FD2C
:1013E000064604E0FFF7D4FD801B022805D86848B4
:1013F0006C3000688007F5D510E07AE0C0F8008016
:10140000FFF7C6FD064604E0FFF7C2FD801B022879
:101410006FD85F486C3000688007F5D428784007A3
:1014200053D55B483830016841F080510160006855
:1014300000F0805000905948016841F480710160CB
:10144000FFF7A6FD064604E0FFF7A2FD801B022879
:101450004FD852480068C005F6D54D4EA86868368A
:1014600001280FD00528306810D020F0010030602E
:10147000306820F004003060A868B8B1FFF788FD3C
:1014800000900FE0306840F00100F4E740F0040005
:101490003060F7E7FFF77CFD0099411A41F2883090
:1014A00081426AD830688007F4D50EE0FFF770FDFE
:1014B000009007E0FFF76CFD0099411A41F2883077
:1014C00081425AD830688007F4D4A869E8B3D9F8C3
:1014D0000010C1F38101022957D00228C7F86080AB
:1014E00003D0FFF755FD05464AE0FFF751FD0646DC
:1014F00005E042E0FFF74CFD801B02283DD8206844
:101500008001F7D4D5E90701084347F6C07292FA83
:10151000A2F2696AB2FA82F29140AA6A4FF0FF33EE
:1015200003EB52024FF4403393FAA3F3B3FA83F37D
:101530009A40114308434FF0706292FAA2F2E96AAE
:10154000B2FA82F29140084300E01CE0CBF80000C0
:10155000C7F860A0FFF71CFD054604E0FFF718FD83
:10156000401B022809D820688001F7D50BE000BF96
:10157000FFF70EFD401B022802D90320BDE8F88FBB
:1015800020688001F4D40020F8E70120F6E700008D
:101590000838024000004742800E47420070004079
:1015A00070B5040004D094F85100002510B106E095
:1015B000012070BD84F85050204600F037F802201A
:1015C00084F851002068016821F040010160D4E9ED
:1015D00001010843D4E90312114308436169084338
:1015E000218B01F400710843E1690843216A084333
:1015F000A16A084321680860A069042101EA10403B
:10160000616A084321684860A06AB0F5005F02D1B2
:101610002168E06A08612068C16921F40061C16144
:101620006565012084F85100002070BD2DE9F0436C
:1016300000684D4987B088427DD14C48002401683C
:1016400041F001010160016801F0010105910168AB
:1016500041F002010160016801F002010591016899
:1016600041F001010160016801F00101059101688B
:1016700041F001010160016801F00101059101687B
:1016800041F001010160016801F00101059101686B
:1016900041F001010160006800F00100059033484D
:1016A0001430016841F480510160006801254FF455
:1016B0008076CDE9006500F48050CDE90440CDE9A5
:1016C0000254DFF8AC9069464846FFF78FFB0022D2
:1016D00031464846FFF757FC08200226CDE90006B0
:1016E00002AA03274FF0050882E8C0016946214895
:1016F000FFF77CFB4020CDE9000602AA694682E89C
:10170000A0014846FFF772FB8020CDE9000602AA3F
:10171000694682E890014846FFF768FBCDE900651D
:101720000295CDE9037469464846FFF75FFB012245
:101730000221484600E013E0FFF725FC0E4801A90E
:10174000009581E89100694648460494FFF74EFBF6
:10175000002203210620FFF76FFC0620FFF760FC44
:1017600007B0BDE8F083000000300140303802408F
:101770000000024000040240000011102DE9F84F63
:10178000044600200A9F9A4693460D46ADF8000095
:10179000064694F850004FF0010901280ED00120B0
:1017A00084F85000FFF7F4FB804694F8510061681C
:1017B00001280CD0B1F5827F07D102E00220BDE8FC
:1017C000F88FA16809B9042801D0022605E155B1B6
:1017D000BBF1000F07D0BAF1000F04D094F851000C
:1017E000012802D004E00126F7E0052084F851002A
:1017F00000206065C4F838B0A4F83EA0A4F83CA06E
:101800002563A4F836A0A4F834A020646064A06A1C
:101810004FF4005A50450AD1206801684DF6FF7216
:10182000114001602068016841F4005101602068A6
:101830000168490603D4016841F040010160E06895
:10184000B0F5006F606804D0F0B3E08E012847D097
:101850007FE010B1E08E01283BD1216835F8020B02
:10186000C860E08E401EE08633E000BFB9F1000F93
:1018700017D0E08EA8B120688168890711D535F8A6
:10188000021BC160E08E401EE086E08E4FF0000932
:1018900038B9A06A504504D12068016841F48051EC
:1018A0000160E08F58B120688168C90707D0C0681F
:1018B0002BF8020BE08F401EE0874FF00109781CE7
:1018C00007D0FFF765FB00E00AE0A0EB0800B84294
:1018D00071D2E08E0028C9D1E08F0028C6D13EE049
:1018E000216815F8010B0873E08E401EE08630E099
:1018F000B9F1000F17D0E08EA8B120688168890780
:1019000011D515F8011B0173E08E401EE086E08EB4
:101910004FF0000938B9A06A504504D12068016829
:1019200041F480510160E08F58B120688168C90797
:1019300007D0C0680BF8010BE08F401EE0874FF026
:101940000109781C05D0FFF723FBA0EB0800B84283
:1019500031D2E08E0028CBD1E08F0028C8D1A06A18
:10196000504513D101223B4611462046CDF8008058
:1019700000F0F0F920B1606D40F0020060651AE0FF
:101980002068C068ADF80000BDF8000020688168DC
:10199000C90607D5616D41F0020161654FF6EF712F
:1019A000816001263B46012202212046CDF80080BD
:1019B00000F0D0F908B103260FE042463946204630
:1019C00000F0B8F918B101262020606505E0A06894
:1019D00018B92068C16880680090012084F851001F
:1019E000002084F850003046E9E610B5401EB0F102
:1019F000807F01D3012010BD4FF0E02460610F21F2
:101A0000601700F012F90020A0610720206100207B
:101A100010BD0000421C0078042827D1107805284A
:101A20000ED03E280ED0FF2820D132F8020FA0F5AC
:101A3000406001380ED0132818D1908800F01CB9EE
:101A4000FFF7AEB99178901C01290FD14188801D14
:101A5000FFF79AB90648917900780128908803D059
:101A600012F10702FEF7F8BF0932FBE770470000EA
:101A70000000002070B50B4800F002FF0948083054
:101A800000F0FEFE084D0024C4EBC40000EB800013
:101A900005EB8001034800F002FF641CE4B2052C52
:101AA000F2D370BD48000020C000002008B500201F
:101AB000009022E0144800F0FEFE10B1FFF746F956
:101AC00008BD6946104800F002FF009880210830E8
:101AD000FFF790F810F0FF0105D0009880F888100B
:101AE00000F03EF820B10848009900F0CCFE04E078
:101AF00005480099083000F0D2FEFFF727F9FFF7FC
:101B000055F80028D6D108BD4800002008B50020AF
:101B10000090FFF722F910E069460D4800F0D7FE6B
:101B2000FFF72EF900980830FFF774FFFFF715F95B
:101B300007480099083800F0B2FE054800F0BBFEE7
:101B40000028E9D0FFF7B2FFFFF71AF908BD00003F
:101B500050000020014800F0AEBE00005000002000
:101B6000027A00F10801042A01D00120704790F8A0
:101B700088008978C01E814201D002207047002071
:101B800070472DE9FC410E4607461C461546642168
:101B9000684600F0BFF9E3B2EAB231463846FFF7D3
:101BA00079F8002804D0684600F0A6F90028F2D0A1
:101BB000BDE8FC81FEE7000001B582B002A80090FC
:101BC000054802230022018A408900F04BFC0028CE
:101BD00000D047200EBD00000C0000201CB5FFF710
:101BE000D7F94EF66021B0FBF1F00E4C216A884225
:101BF00016D0010E20628DF80410010C8DF805102E
:101C0000010A8DF806108DF8070001A80090042342
:101C10000022E18A608A00F025FC08B147201CBD43
:101C200000201CBD0C00002070470907090E002889
:101C300006DA00F00F0000F1E02080F8141D704774
:101C400000F1E02080F800147047FEF703BBFEF7B8
:101C500015BB704701B582B002A800900548032368
:101C60000022C189408900F0FDFB002800D04720F8
:101C70000EBD00000C0000207CB52B4C2189491CB6
:101C8000884203D12948FEF73BFB43E0A1896FF06E
:101C90000045491C884213D1FEF7CAFA0F2180FB88
:101CA00001012A460023FEF791FA4FF4877140188C
:101CB00005B21E48FEF724FB284600F00BF929E088
:101CC000E189491C884212D16421684600F022F95A
:101CD000FEF7AEFA4FF47A7180FB01012A46002329
:101CE000FEF774FA12494018FFF7B4FF12E0218A98
:101CF000491C88420ED1FEF79BFA642180FB01014A
:101D00002A460023FEF762FA4FF4E171401880B2D0
:101D1000FFF752FF6088002804D06088BDE87C404F
:101D200000F05EBB7CBD00000C0000205C000020C9
:101D3000A086010038B50B4600920446002280219F
:101D400000F008F8002804D0606D40F020006065C5
:101D5000032038BD2DE9F0411D4617460E460446C6
:101D6000DDF8188035E0681C33D02DB1FFF710F98D
:101D7000A0EB0800A8422CD32068416821F0E001C4
:101D800041606068B0F5827F0BD1A068B0F5004F6C
:101D900002D0B0F5806F04D12068016821F04001C5
:101DA0000160A06AB0F5005F0AD1206801684DF6B5
:101DB000FF72114001602068016841F40051016028
:101DC000012084F85100002084F850000320BDE871
:101DD000F0812068806836EA000004D00020B84214
:101DE000C1D10020F3E70120F9E770471CB5FFF7E8
:101DF000CFF84FF47A71B0FBF1F0010E8DF80410BA
:101E0000010C8DF80510010A8DF806108DF80700F9
:101E100001A80090054804230022818A408A00F02E
:101E200021FB002800D047201CBD00000C00002032
:101E300010B5FFF7B3F802484168491C416010BD76
:101E40000400002030B591B0022401250620009442
:101E5000CDE903500020CDE9064010200890000194
:101E6000099008200A9004200B906846FFF70EFAAC
:101E7000CDE90C5401210CA8FFF710F911B030BDC9
:101E80001048016841F4700101600F48016841F099
:101E9000010101600C4A00210832116002680B4BFD
:101EA0001A400260031D0A4A1A60026822F4802266
:101EB000026005480C30016002495806803908600C
:101EC0007047000088ED00E000380240FFFFF6FE9A
:101ED0001030002401B582B002A80090054802230A
:101EE00000228189408900F0BDFA002800D04720F7
:101EF0000EBD00000C00002010B50446FFF748F8A6
:101F00002168401A6168401C814201D2012010BD45
:101F1000002010BD10B504464160FFF739F820607D
:101F200010BD10B5FFF762FFBDE81040FFF756BEC9
:101F300070B5124D0446287818B100F08DFD0020D0
:101F400028700020FEF7E8FD002816D10020FEF7DB
:101F5000E3FD0028FAD00A48006800280DD0206868
:101F600064302060606864306060A0686430A060A5
:101F70002046BDE87040FEF7C3B970BD0C000020DC
:101F80002800002002E008C8121F08C1002AFAD168
:101F900070477047002001E001C1121F002AFBD1E9
:101FA000704770B58AB015460E468DF820001C4665
:101FB000072200216846FFF74AFE1822002102A8E6
:101FC000FFF745FE3F20ADF808008A20ADF80A0073
:101FD00008A804900120059007200790CDF818D09C
:101FE000002102A800F086FB002802DAFF200AB0D8
:101FF00070BD9DF800000028F9D1BDF801003080C7
:10200000BDF803002880BDF8050020800020EEE721
:1020100070B58AB01C468DF820008DF82110DDE9DE
:102020000E658DF82220072200216846FFF70FFE7B
:102030001822002102A8FFF70AFE3F20ADF8080091
:102040008A20ADF80A0008A8049003200590072014
:102050000790CDF818D0002102A800F04BFB002813
:1020600002DAFF200AB070BD9DF800000028F9D107
:10207000BDF801002080BDF803003080BDF80500E8
:1020800028800020EEE72DE9F0438FB01D4613466F
:1020900016AA6C4692E8C0038DF800008DF8011076
:1020A00010221946A01CFFF7D0FD8DF812508DF8B4
:1020B00013608DF81470CDF815808DF819901822E2
:1020C000002107A8FFF7C3FD3F20ADF81C008620C4
:1020D000ADF81E001A20CDE909400DA80B90012093
:1020E0000C90002107A800F005FB002803DAFF2070
:1020F0000FB0BDE8F0839DF83400F9E72DE9FF4FFC
:1021000091B09846DDE91F59DDE9216BA9190E311F
:10211000DDF878A0282903D9422015B0BDE8F08F5A
:102120006C468DF800000127022212A9601CFFF7FF
:102130008CFDE01C022213A9FFF787FD8DF80580B6
:102140008DF806A08DF807502A46494602A8FFF7E9
:102150007CFD0835E8B232462654401CC5B26019F1
:102160005946FFF772FDA819C5B26019022223A9CA
:10217000FFF76BFDAD1CEDB26019022224A9FFF739
:1021800064FDAD1CEDB2182200210AA8FFF75FFD27
:102190003F20ADF828008320ADF82A0010A80F9743
:1021A0000C94CDE90D5000210AA800F0A3FA0028F4
:1021B00001DAFF20B1E79DF84000AEE72DE9FF4FBF
:1021C0008FB00D46DDE91C8B07AC1F46204602226E
:1021D0000FA9DDF87CA0DDF88490FFF736FD03261B
:1021E0008DF81E50012D3BD01025E01C2A46119978
:1021F000FFF72BFDED1C032267556D1C04F80580CD
:102200006D1C04F805B06D1CE8B21E992154401CE9
:10221000C0B204F800A0401CC0B220992154401C58
:10222000C5B200216846FFF712FD1822002101A85F
:10223000FFF70DFD3F20ADF804004FF48270ADF8BC
:1022400006006846CDE9045000210696039401A8D3
:1022500000F050FA002805DAFF2013B0BDE8F08F37
:102260000225C2E79DF800000028F6D1BDF8011054
:10227000A9F80010F1E72DE9FF4FA7B01546DDE9F9
:102280003476DDE939B96C462046022227A9DDF80B
:10229000E0A0DDF8F080FFF7D8FCA01C022228A9FE
:1022A000FFF7D3FC8DF80450012D12D01025601DCE
:1022B0002A462A99FFF7C9FC6D1D67556D1C6655A6
:1022C0006D1C7019401D802805D942202BB0BDE837
:1022D000F08F0225EBE7601932463699FFF7B5FC1F
:1022E000A819C0B237992154401CC0B2032204F887
:1022F00000A0401CC0B204F800B0401CC0B204F8FA
:102300000090401CC0B23B992154401CC5B2002132
:1023100020A8FFF79CFC1822002121A8FFF797FCBA
:102320003F20ADF8840040F20510ADF8860020A8EB
:10233000CDE92450032026902394002121A800F009
:10234000D9F9002801DAFF20C0E79DF880000028B5
:10235000BCD1BDF88110A8F80010B7E72DE9F04115
:102360008CB01E46DDF84880174607AD8DF81C007E
:1023700001282AD010242246681CFFF766FC641C42
:1023800003222F55641C00212E556846641CFFF75C
:102390005EFC1822002101A8FFF759FC3F20ADF890
:1023A00004004FF48170ADF806006846CDE90440A2
:1023B000032006900395002101A800F09BF9002856
:1023C00005DAFF200CB0BDE8F0810224D3E79DF8C8
:1023D00000000028F6D1BDF80110A8F80010F1E7C0
:1023E00000B589B01822ADF81C0000216846FFF73F
:1023F0002EFC3F20ADF8000040F22710ADF802009F
:1024000007A802900220039006A8049001200590DE
:102410000021684600F06EF9002802DAFF2009B0BA
:1024200000BD9DF81800FAE700B587B0182200211A
:102430006846FFF70CFC3F20ADF8000040F20110A9
:10244000ADF8020006A8049001200590002168461E
:1024500000F050F9002802DAFF2007B000BD9DF817
:102460001800FAE72DE9FF41A8B09E1DDDF8C880ED
:102470001D461746802E03D942202CB0BDE8F081BE
:102480006C462046022228A9FFF7DFFBA01C02228F
:1024900029A9FFF7DAFB8DF804708DF80550A01D0F
:1024A0002A464146FFF7D1FBF5B21822002120A8A9
:1024B000FFF7CDFB3F20ADF880004FF48370ADF8FF
:1024C000820026A82294CDE92350012025900021E6
:1024D00020A800F00FF9002801DAFF20CDE79DF8D1
:1024E0009800CAE700B589B018228DF81C008DF855
:1024F0001D1000216846FFF7AAFB3F20ADF8000041
:102500000F20ADF8020007A802900220039006A851
:102510000490012005900021684600F0EBF80028A7
:1025200002DAFF2009B000BD9DF81800FAE770B587
:102530008D1CA8B01346802D02D9422028B070BD52
:102540008DF800006C468DF801100A4601261946E8
:10255000A01CFFF77AFBEDB21822002120A8FFF79C
:1025600076FB3F20ADF880000C20ADF8820026A855
:1025700025962294CDE92350002120A800F0BAF836
:10258000002801DAFF20D9E79DF89800D6E770B55A
:1025900086B0064601A80C46009005AB04AA02A925
:1025A00003A800F01DF810F0FF0514D1BDF80800D5
:1025B000000A3070BDF8080000022080BDF8041049
:1025C000C1F3031140EA01102080BDF8041001F0AE
:1025D0000F0108432080FFF799FA06B0284670BD26
:1025E0002DE9F0418AB015460E4607461C460922E1
:1025F00000216846DDF84080FFF729FB1822002102
:1026000003A8FFF724FB0420ADF80C000120ADF86F
:102610000E0000200590069009200890CDF81CD0EF
:10262000002103A800F066F8002803DAFF200AB0B2
:10263000BDE8F0819DF800000028F8D19DF8010068
:102640003870BDF8020030809DF804002870BDF895
:1026500005002080BDF80710A8F800100020E6E76C
:1026600030B58FB00D460446202200216846FFF7A2
:10267000EEFA8DF800401F2C00D91F2422466C462C
:102680002946601CFFF7E1FA1822002108A8FFF78D
:10269000DEFA0820ADF820000920ADF82200202045
:1026A000CDE90A400EA80C9001200D90002108A849
:1026B00000F020F8002802DAFF200FB030BD9DF8AE
:1026C0003800FAE77CB560F39F21ADF800100120D7
:1026D00014468DF802208DF8040069461D46032239
:1026E000481DFFF7B2FA23460422294601A800F04C
:1026F000B7F87CBD2DE9F041884604460188408842
:102700008CB061F39F2085B20026642705A802964D
:1027100000F0B6F8FEF721FB0AE069464F4800F0EA
:10272000D6F84E480099083800F0B9F8FFF7BEF91E
:102730004A48083800F096F80228EEDBFEF720FB46
:10274000227B61882088A368FFF7BCFFB8F1000FE7
:1027500003D000200CB0BDE8F081394607A8FFF790
:10276000D9FB07A8FFF7C8FB002868D1FFF7F2F9EB
:102770000028F6D1FEF7F1FA02A9384800F0A7F8D0
:10278000029800F10803017A042940D190F88820CA
:102790005878D91CD21E0E2814D00F2804D0102827
:1027A0004DD03E2833D118E04888A84247D1606810
:1027B0000F2802D00878B8BB29E0606909E062619F
:1027C000206916E0B1F80100A84238D1C91C60693F
:1027D000D21E9042F3DC0246F1E708786368984223
:1027E00015D16069521E904200DC02466261491CAC
:1027F0002069FFF72AFA19480299083800F043F8CF
:1028000005A9164800F016F9FEF7BAFAA1E7134831
:10281000083800F050F840B1104800F04CF820B1F2
:102820000E480299083802E009E005A8029900F074
:1028300036F80296FFF73AF9FEF7A2FA91E7029905
:1028400019B10648083800F01EF805A9034800F041
:10285000F1F8FEF795FA4FF0FF307BE750000020CB
:10286000FFF78FB903460020EFF3108172B61A68A4
:1028700001E01268401C9A42FBD181F31088704736
:10288000006040607047EFF3108272B60368C1E9E0
:1028900000300160086882F3108841607047EFF3F0
:1028A000108272B6086043684B604160486882F3EA
:1028B000108801607047EFF3108172B6026882429F
:1028C00001D1012000E0002081F31088704730B56D
:1028D0000D46EFF3108472B601682960006800F0BD
:1028E00008F8296800200860296884F31088486087
:1028F00030BDEFF3108172B6D0E900231A6005C82D
:1029000081F310884260704730B50D46EFF31084B4
:1029100072B6416829604068FFF7EBFF2968002024
:102920000860296884F31088486030BD3CA18EB0EF
:10293000D1E9000138A4CDE90601FEF737FB0020FC
:10294000FEF7B2F800210846FEF7F2F8FFF77AFA30
:10295000FEF78EF8FFF78EF8FEF734F90CA908A8F9
:10296000FFF715FEFEF72EF99DF8200001252E4EEB
:10297000302803D9357002208DF81D00062206A9E3
:1029800009A8FFF762F909AA06210020FFF7CFFD89
:10299000FFF74AFD3078012813D00BAB05AA04A934
:1029A0000120FFF7FEFA2046FDF771FCC3B2009448
:1029B0000022BDF81410BDF81000FFF753FD58B108
:1029C000FEE70BA905A8CDE9000104AB0722002111
:1029D0000120FFF71DFBE6E7144800211022CDE996
:1029E0000021CDE9020507230A460120FFF74BFB32
:1029F000FDF7ACFCFDF76CFDFDF766FFFDF7E2FEB1
:102A000004210120FFF76EFDFFF780F80848FFF76B
:102A10008FFAFFF786FAF7E7426C75654E5247006A
:102A2000123400E1800300000000002040E20100B9
:102A30005C00002038B50C46054607E06946204694
:102A4000FFF762FF28460099FFF71DFF2046FFF7BA
:102A500032FF0028F2D038BD00B50DA189B0D1E910
:102A60000001CDE9070100210846FFF7F9FD00202C
:102A700003900490059007AA082106908DE80700AE
:102A8000034602460146FFF739FB09B000BD0000CE
:102A900009426C75654E5247280020000020000056
:102AA00000000000000001020304060708090000FE
:102AB000D02A0008000000205C000000841F0008ED
:102AC0002C2B00085C00002024070000941F000845
:102AD00000000000000000000000000001000000F5
:102AE00000000000000000000000000000000000E6
:102AF000000000000000000000000000FFFFFFFFDA
:102B00000000024000080240E80300000024F40036
:102B100000000000000000000000000000000000B5
:0C2B2000000000000000000000000000A9
:040000050800019559
:00000001FF
